{
  "contractName": "VariableRefToken",
  "abi": [
    {
      "inputs": [],
      "stateMutability": "nonpayable",
      "type": "constructor"
    },
    {
      "anonymous": false,
      "inputs": [
        {
          "indexed": true,
          "internalType": "address",
          "name": "owner",
          "type": "address"
        },
        {
          "indexed": true,
          "internalType": "address",
          "name": "spender",
          "type": "address"
        },
        {
          "indexed": false,
          "internalType": "uint256",
          "name": "value",
          "type": "uint256"
        }
      ],
      "name": "Approval",
      "type": "event"
    },
    {
      "anonymous": false,
      "inputs": [
        {
          "indexed": true,
          "internalType": "address",
          "name": "previousOwner",
          "type": "address"
        },
        {
          "indexed": true,
          "internalType": "address",
          "name": "newOwner",
          "type": "address"
        }
      ],
      "name": "OwnershipTransferred",
      "type": "event"
    },
    {
      "anonymous": false,
      "inputs": [
        {
          "indexed": true,
          "internalType": "address",
          "name": "from",
          "type": "address"
        },
        {
          "indexed": true,
          "internalType": "address",
          "name": "to",
          "type": "address"
        },
        {
          "indexed": false,
          "internalType": "uint256",
          "name": "value",
          "type": "uint256"
        }
      ],
      "name": "Transfer",
      "type": "event"
    },
    {
      "inputs": [],
      "name": "owner",
      "outputs": [
        {
          "internalType": "address",
          "name": "",
          "type": "address"
        }
      ],
      "stateMutability": "view",
      "type": "function"
    },
    {
      "inputs": [],
      "name": "renounceOwnership",
      "outputs": [],
      "stateMutability": "nonpayable",
      "type": "function"
    },
    {
      "inputs": [
        {
          "internalType": "address",
          "name": "newOwner",
          "type": "address"
        }
      ],
      "name": "transferOwnership",
      "outputs": [],
      "stateMutability": "nonpayable",
      "type": "function"
    },
    {
      "inputs": [],
      "name": "name",
      "outputs": [
        {
          "internalType": "string",
          "name": "",
          "type": "string"
        }
      ],
      "stateMutability": "view",
      "type": "function"
    },
    {
      "inputs": [],
      "name": "dates",
      "outputs": [
        {
          "internalType": "uint256",
          "name": "",
          "type": "uint256"
        },
        {
          "internalType": "uint256",
          "name": "",
          "type": "uint256"
        }
      ],
      "stateMutability": "view",
      "type": "function"
    },
    {
      "inputs": [
        {
          "internalType": "address",
          "name": "cuenta",
          "type": "address"
        }
      ],
      "name": "rBalance",
      "outputs": [
        {
          "internalType": "uint256",
          "name": "",
          "type": "uint256"
        }
      ],
      "stateMutability": "view",
      "type": "function"
    },
    {
      "inputs": [],
      "name": "currentRate1",
      "outputs": [
        {
          "internalType": "uint256",
          "name": "",
          "type": "uint256"
        }
      ],
      "stateMutability": "view",
      "type": "function"
    },
    {
      "inputs": [],
      "name": "symbol",
      "outputs": [
        {
          "internalType": "string",
          "name": "",
          "type": "string"
        }
      ],
      "stateMutability": "view",
      "type": "function"
    },
    {
      "inputs": [],
      "name": "decimals",
      "outputs": [
        {
          "internalType": "uint8",
          "name": "",
          "type": "uint8"
        }
      ],
      "stateMutability": "view",
      "type": "function"
    },
    {
      "inputs": [],
      "name": "totalSupply",
      "outputs": [
        {
          "internalType": "uint256",
          "name": "",
          "type": "uint256"
        }
      ],
      "stateMutability": "view",
      "type": "function"
    },
    {
      "inputs": [
        {
          "internalType": "address",
          "name": "account",
          "type": "address"
        }
      ],
      "name": "balanceOf",
      "outputs": [
        {
          "internalType": "uint256",
          "name": "",
          "type": "uint256"
        }
      ],
      "stateMutability": "view",
      "type": "function"
    },
    {
      "inputs": [
        {
          "internalType": "address",
          "name": "recipient",
          "type": "address"
        },
        {
          "internalType": "uint256",
          "name": "amount",
          "type": "uint256"
        }
      ],
      "name": "transfer",
      "outputs": [
        {
          "internalType": "bool",
          "name": "",
          "type": "bool"
        }
      ],
      "stateMutability": "nonpayable",
      "type": "function"
    },
    {
      "inputs": [
        {
          "internalType": "address",
          "name": "owner",
          "type": "address"
        },
        {
          "internalType": "address",
          "name": "spender",
          "type": "address"
        }
      ],
      "name": "allowance",
      "outputs": [
        {
          "internalType": "uint256",
          "name": "",
          "type": "uint256"
        }
      ],
      "stateMutability": "view",
      "type": "function"
    },
    {
      "inputs": [
        {
          "internalType": "address",
          "name": "spender",
          "type": "address"
        },
        {
          "internalType": "uint256",
          "name": "amount",
          "type": "uint256"
        }
      ],
      "name": "approve",
      "outputs": [
        {
          "internalType": "bool",
          "name": "",
          "type": "bool"
        }
      ],
      "stateMutability": "nonpayable",
      "type": "function"
    },
    {
      "inputs": [
        {
          "internalType": "address",
          "name": "sender",
          "type": "address"
        },
        {
          "internalType": "address",
          "name": "recipient",
          "type": "address"
        },
        {
          "internalType": "uint256",
          "name": "amount",
          "type": "uint256"
        }
      ],
      "name": "transferFrom",
      "outputs": [
        {
          "internalType": "bool",
          "name": "",
          "type": "bool"
        }
      ],
      "stateMutability": "nonpayable",
      "type": "function"
    },
    {
      "inputs": [
        {
          "internalType": "address",
          "name": "spender",
          "type": "address"
        },
        {
          "internalType": "uint256",
          "name": "addedValue",
          "type": "uint256"
        }
      ],
      "name": "increaseAllowance",
      "outputs": [
        {
          "internalType": "bool",
          "name": "",
          "type": "bool"
        }
      ],
      "stateMutability": "nonpayable",
      "type": "function"
    },
    {
      "inputs": [
        {
          "internalType": "address",
          "name": "spender",
          "type": "address"
        },
        {
          "internalType": "uint256",
          "name": "subtractedValue",
          "type": "uint256"
        }
      ],
      "name": "decreaseAllowance",
      "outputs": [
        {
          "internalType": "bool",
          "name": "",
          "type": "bool"
        }
      ],
      "stateMutability": "nonpayable",
      "type": "function"
    },
    {
      "inputs": [],
      "name": "totalFees",
      "outputs": [
        {
          "internalType": "uint256",
          "name": "",
          "type": "uint256"
        }
      ],
      "stateMutability": "view",
      "type": "function"
    },
    {
      "inputs": [],
      "name": "vFee",
      "outputs": [
        {
          "internalType": "uint256",
          "name": "",
          "type": "uint256"
        }
      ],
      "stateMutability": "view",
      "type": "function"
    },
    {
      "inputs": [
        {
          "internalType": "uint256",
          "name": "tAmount",
          "type": "uint256"
        }
      ],
      "name": "reflect",
      "outputs": [],
      "stateMutability": "nonpayable",
      "type": "function"
    },
    {
      "inputs": [
        {
          "internalType": "uint256",
          "name": "tAmount",
          "type": "uint256"
        },
        {
          "internalType": "bool",
          "name": "deductTransferFee",
          "type": "bool"
        }
      ],
      "name": "reflectionFromToken",
      "outputs": [
        {
          "internalType": "uint256",
          "name": "",
          "type": "uint256"
        }
      ],
      "stateMutability": "view",
      "type": "function"
    },
    {
      "inputs": [
        {
          "internalType": "uint256",
          "name": "rAmount",
          "type": "uint256"
        }
      ],
      "name": "tokenFromReflection",
      "outputs": [
        {
          "internalType": "uint256",
          "name": "",
          "type": "uint256"
        }
      ],
      "stateMutability": "view",
      "type": "function"
    }
  ],
  "bytecode": "0x6080604052662386f26fc100006000196200001b919062000420565b6000196200002a9190620003a5565b6004556040518060400160405280600b81526020017f566172526566546f6b656e000000000000000000000000000000000000000000815250600890805190602001906200007a929190620002c7565b506040518060400160405280600381526020017f475549000000000000000000000000000000000000000000000000000000000081525060099080519060200190620000c8929190620002c7565b506009600a60006101000a81548160ff021916908360ff160217905550348015620000f257600080fd5b506200011362000107620001fb60201b60201c565b6200020360201b60201c565b600454600160006200012a620001fb60201b60201c565b73ffffffffffffffffffffffffffffffffffffffff1673ffffffffffffffffffffffffffffffffffffffff1681526020019081526020016000208190555042600781905550603260068190555062000187620001fb60201b60201c565b73ffffffffffffffffffffffffffffffffffffffff16600073ffffffffffffffffffffffffffffffffffffffff167fddf252ad1be2c89b69c2b068fc378daa952ba7f163c4a11628f55a4df523b3ef662386f26fc10000604051620001ed919062000388565b60405180910390a3620004e5565b600033905090565b60008060009054906101000a900473ffffffffffffffffffffffffffffffffffffffff169050816000806101000a81548173ffffffffffffffffffffffffffffffffffffffff021916908373ffffffffffffffffffffffffffffffffffffffff1602179055508173ffffffffffffffffffffffffffffffffffffffff168173ffffffffffffffffffffffffffffffffffffffff167f8be0079c531659141344cd1fd0a4f28419497f9722a3daafe3b4186f6b6457e060405160405180910390a35050565b828054620002d590620003ea565b90600052602060002090601f016020900481019282620002f9576000855562000345565b82601f106200031457805160ff191683800117855562000345565b8280016001018555821562000345579182015b828111156200034457825182559160200191906001019062000327565b5b50905062000354919062000358565b5090565b5b808211156200037357600081600090555060010162000359565b5090565b6200038281620003e0565b82525050565b60006020820190506200039f600083018462000377565b92915050565b6000620003b282620003e0565b9150620003bf83620003e0565b925082821015620003d557620003d462000458565b5b828203905092915050565b6000819050919050565b600060028204905060018216806200040357607f821691505b602082108114156200041a5762000419620004b6565b5b50919050565b60006200042d82620003e0565b91506200043a83620003e0565b9250826200044d576200044c62000487565b5b828206905092915050565b7f4e487b7100000000000000000000000000000000000000000000000000000000600052601160045260246000fd5b7f4e487b7100000000000000000000000000000000000000000000000000000000600052601260045260246000fd5b7f4e487b7100000000000000000000000000000000000000000000000000000000600052602260045260246000fd5b61205380620004f56000396000f3fe608060405234801561001057600080fd5b50600436106101425760003560e01c80634e44c32e116100b8578063a457c2d71161007c578063a457c2d71461037d578063a9059cbb146103ad578063c157fc72146103dd578063c1ae4a19146103fc578063dd62ed3e1461042c578063f2fde38b1461045c57610142565b80634e44c32e146102e957806370a0823114610307578063715018a6146103375780638da5cb5b1461034157806395d89b411461035f57610142565b806318160ddd1161010a57806318160ddd146101ed57806323b872dd1461020b5780632d8381191461023b578063313ce5671461026b57806339509351146102895780634549b039146102b957610142565b8063053ab1821461014757806306fdde0314610163578063095ea7b31461018157806313114a9d146101b1578063162757f5146101cf575b600080fd5b610161600480360381019061015c919061168e565b610478565b005b61016b610568565b60405161017891906118e1565b60405180910390f35b61019b6004803603810190610196919061164e565b6105fa565b6040516101a891906118c6565b60405180910390f35b6101b9610618565b6040516101c69190611a23565b60405180910390f35b6101d7610622565b6040516101e49190611a23565b60405180910390f35b6101f5610631565b6040516102029190611a23565b60405180910390f35b610225600480360381019061022091906115fb565b610640565b60405161023291906118c6565b60405180910390f35b6102556004803603810190610250919061168e565b610719565b6040516102629190611a23565b60405180910390f35b610273610787565b6040516102809190611a67565b60405180910390f35b6102a3600480360381019061029e919061164e565b61079e565b6040516102b091906118c6565b60405180910390f35b6102d360048036038101906102ce91906116bb565b610851565b6040516102e09190611a23565b60405180910390f35b6102f16108bb565b6040516102fe9190611a23565b60405180910390f35b610321600480360381019061031c919061158e565b6108c5565b60405161032e9190611a23565b60405180910390f35b61033f610916565b005b61034961099e565b60405161035691906118ab565b60405180910390f35b6103676109c7565b60405161037491906118e1565b60405180910390f35b6103976004803603810190610392919061164e565b610a59565b6040516103a491906118c6565b60405180910390f35b6103c760048036038101906103c2919061164e565b610b26565b6040516103d491906118c6565b60405180910390f35b6103e5610b44565b6040516103f3929190611a3e565b60405180910390f35b6104166004803603810190610411919061158e565b610b53565b6040516104239190611a23565b60405180910390f35b610446600480360381019061044191906115bb565b610b9c565b6040516104539190611a23565b60405180910390f35b6104766004803603810190610471919061158e565b610c23565b005b6000610482610d1b565b9050600061049283600654610d23565b5050505090506104ea81600160008573ffffffffffffffffffffffffffffffffffffffff1673ffffffffffffffffffffffffffffffffffffffff16815260200190815260200160002054610d7d90919063ffffffff16565b600160008473ffffffffffffffffffffffffffffffffffffffff1673ffffffffffffffffffffffffffffffffffffffff1681526020019081526020016000208190555061054281600454610d7d90919063ffffffff16565b60048190555061055d83600554610d9390919063ffffffff16565b600581905550505050565b60606008805461057790611c3b565b80601f01602080910402602001604051908101604052809291908181526020018280546105a390611c3b565b80156105f05780601f106105c5576101008083540402835291602001916105f0565b820191906000526020600020905b8154815290600101906020018083116105d357829003601f168201915b5050505050905090565b600061060e610607610d1b565b8484610da9565b6001905092915050565b6000600554905090565b600061062c610f74565b905090565b6000662386f26fc10000905090565b600061064d848484610f9f565b61070e84610659610d1b565b61070985604051806060016040528060288152602001611fd160289139600360008b73ffffffffffffffffffffffffffffffffffffffff1673ffffffffffffffffffffffffffffffffffffffff16815260200190815260200160002060006106bf610d1b565b73ffffffffffffffffffffffffffffffffffffffff1673ffffffffffffffffffffffffffffffffffffffff168152602001908152602001600020546110d29092919063ffffffff16565b610da9565b600190509392505050565b6000600454821115610760576040517f08c379a000000000000000000000000000000000000000000000000000000000815260040161075790611923565b60405180910390fd5b600061076a610f74565b905061077f818461112790919063ffffffff16565b915050919050565b6000600a60009054906101000a900460ff16905090565b60006108476107ab610d1b565b8461084285600360006107bc610d1b565b73ffffffffffffffffffffffffffffffffffffffff1673ffffffffffffffffffffffffffffffffffffffff16815260200190815260200160002060008973ffffffffffffffffffffffffffffffffffffffff1673ffffffffffffffffffffffffffffffffffffffff16815260200190815260200160002054610d9390919063ffffffff16565b610da9565b6001905092915050565b6000662386f26fc1000083111561089d576040517f08c379a000000000000000000000000000000000000000000000000000000000815260040161089490611983565b60405180910390fd5b60006108ab84600654610d23565b5050509150508091505092915050565b6000600654905090565b600061090f600160008473ffffffffffffffffffffffffffffffffffffffff1673ffffffffffffffffffffffffffffffffffffffff16815260200190815260200160002054610719565b9050919050565b61091e610d1b565b73ffffffffffffffffffffffffffffffffffffffff1661093c61099e565b73ffffffffffffffffffffffffffffffffffffffff1614610992576040517f08c379a0000000000000000000000000000000000000000000000000000000008152600401610989906119a3565b60405180910390fd5b61099c600061113d565b565b60008060009054906101000a900473ffffffffffffffffffffffffffffffffffffffff16905090565b6060600980546109d690611c3b565b80601f0160208091040260200160405190810160405280929190818152602001828054610a0290611c3b565b8015610a4f5780601f10610a2457610100808354040283529160200191610a4f565b820191906000526020600020905b815481529060010190602001808311610a3257829003601f168201915b5050505050905090565b6000610b1c610a66610d1b565b84610b1785604051806060016040528060258152602001611ff96025913960036000610a90610d1b565b73ffffffffffffffffffffffffffffffffffffffff1673ffffffffffffffffffffffffffffffffffffffff16815260200190815260200160002060008a73ffffffffffffffffffffffffffffffffffffffff1673ffffffffffffffffffffffffffffffffffffffff168152602001908152602001600020546110d29092919063ffffffff16565b610da9565b6001905092915050565b6000610b3a610b33610d1b565b8484610f9f565b6001905092915050565b60008060075442915091509091565b6000600160008373ffffffffffffffffffffffffffffffffffffffff1673ffffffffffffffffffffffffffffffffffffffff168152602001908152602001600020549050919050565b6000600360008473ffffffffffffffffffffffffffffffffffffffff1673ffffffffffffffffffffffffffffffffffffffff16815260200190815260200160002060008373ffffffffffffffffffffffffffffffffffffffff1673ffffffffffffffffffffffffffffffffffffffff16815260200190815260200160002054905092915050565b610c2b610d1b565b73ffffffffffffffffffffffffffffffffffffffff16610c4961099e565b73ffffffffffffffffffffffffffffffffffffffff1614610c9f576040517f08c379a0000000000000000000000000000000000000000000000000000000008152600401610c96906119a3565b60405180910390fd5b600073ffffffffffffffffffffffffffffffffffffffff168173ffffffffffffffffffffffffffffffffffffffff161415610d0f576040517f08c379a0000000000000000000000000000000000000000000000000000000008152600401610d0690611943565b60405180910390fd5b610d188161113d565b50565b600033905090565b6000806000806000806000610d388989611201565b915091506000610d46610f74565b90506000806000610d588d8686611254565b92509250925082828288889a509a509a509a509a505050505050509295509295909350565b60008183610d8b9190611b7f565b905092915050565b60008183610da19190611a9e565b905092915050565b600073ffffffffffffffffffffffffffffffffffffffff168373ffffffffffffffffffffffffffffffffffffffff161415610e19576040517f08c379a0000000000000000000000000000000000000000000000000000000008152600401610e1090611a03565b60405180910390fd5b600073ffffffffffffffffffffffffffffffffffffffff168273ffffffffffffffffffffffffffffffffffffffff161415610e89576040517f08c379a0000000000000000000000000000000000000000000000000000000008152600401610e8090611963565b60405180910390fd5b80600360008573ffffffffffffffffffffffffffffffffffffffff1673ffffffffffffffffffffffffffffffffffffffff16815260200190815260200160002060008473ffffffffffffffffffffffffffffffffffffffff1673ffffffffffffffffffffffffffffffffffffffff168152602001908152602001600020819055508173ffffffffffffffffffffffffffffffffffffffff168373ffffffffffffffffffffffffffffffffffffffff167f8c5be1e5ebec7d5bd14f71427d1e84f3dd0314c0f7b2291e5b200ac8c7c3b92583604051610f679190611a23565b60405180910390a3505050565b6000806000610f816112b2565b91509150610f98818361112790919063ffffffff16565b9250505090565b600073ffffffffffffffffffffffffffffffffffffffff168373ffffffffffffffffffffffffffffffffffffffff16141561100f576040517f08c379a0000000000000000000000000000000000000000000000000000000008152600401611006906119e3565b60405180910390fd5b600073ffffffffffffffffffffffffffffffffffffffff168273ffffffffffffffffffffffffffffffffffffffff16141561107f576040517f08c379a000000000000000000000000000000000000000000000000000000000815260040161107690611903565b60405180910390fd5b600081116110c2576040517f08c379a00000000000000000000000000000000000000000000000000000000081526004016110b9906119c3565b60405180910390fd5b6110cd8383836112d4565b505050565b600083831115829061111a576040517f08c379a000000000000000000000000000000000000000000000000000000000815260040161111191906118e1565b60405180910390fd5b5082840390509392505050565b600081836111359190611af4565b905092915050565b60008060009054906101000a900473ffffffffffffffffffffffffffffffffffffffff169050816000806101000a81548173ffffffffffffffffffffffffffffffffffffffff021916908373ffffffffffffffffffffffffffffffffffffffff1602179055508173ffffffffffffffffffffffffffffffffffffffff168173ffffffffffffffffffffffffffffffffffffffff167f8be0079c531659141344cd1fd0a4f28419497f9722a3daafe3b4186f6b6457e060405160405180910390a35050565b600080600061122c606461121e86886114a090919063ffffffff16565b61112790919063ffffffff16565b905060006112438287610d7d90919063ffffffff16565b905080829350935050509250929050565b60008060008061126d85886114a090919063ffffffff16565b9050600061128486886114a090919063ffffffff16565b9050600061129b8284610d7d90919063ffffffff16565b905082818395509550955050505093509350939050565b600080600060045490506000662386f26fc10000905081819350935050509091565b60006112de6114b6565b905060008060008060006112f28787610d23565b9450945094509450945061134e85600160008c73ffffffffffffffffffffffffffffffffffffffff1673ffffffffffffffffffffffffffffffffffffffff16815260200190815260200160002054610d7d90919063ffffffff16565b600160008b73ffffffffffffffffffffffffffffffffffffffff1673ffffffffffffffffffffffffffffffffffffffff168152602001908152602001600020819055506113e384600160008b73ffffffffffffffffffffffffffffffffffffffff1673ffffffffffffffffffffffffffffffffffffffff16815260200190815260200160002054610d9390919063ffffffff16565b600160008a73ffffffffffffffffffffffffffffffffffffffff1673ffffffffffffffffffffffffffffffffffffffff168152602001908152602001600020819055506114308382611515565b8773ffffffffffffffffffffffffffffffffffffffff168973ffffffffffffffffffffffffffffffffffffffff167fddf252ad1be2c89b69c2b068fc378daa952ba7f163c4a11628f55a4df523b3ef8460405161148d9190611a23565b60405180910390a3505050505050505050565b600081836114ae9190611b25565b905092915050565b60006228206f6114d160075442610d7d90919063ffffffff16565b10611506576000600654146114fb576114f66005600654610d7d90919063ffffffff16565b6114ff565b6006545b6006819055505b42600781905550600654905090565b61152a82600454610d7d90919063ffffffff16565b60048190555061154581600554610d9390919063ffffffff16565b6005819055505050565b60008135905061155e81611f8b565b92915050565b60008135905061157381611fa2565b92915050565b60008135905061158881611fb9565b92915050565b6000602082840312156115a4576115a3611cfa565b5b60006115b28482850161154f565b91505092915050565b600080604083850312156115d2576115d1611cfa565b5b60006115e08582860161154f565b92505060206115f18582860161154f565b9150509250929050565b60008060006060848603121561161457611613611cfa565b5b60006116228682870161154f565b93505060206116338682870161154f565b925050604061164486828701611579565b9150509250925092565b6000806040838503121561166557611664611cfa565b5b60006116738582860161154f565b925050602061168485828601611579565b9150509250929050565b6000602082840312156116a4576116a3611cfa565b5b60006116b284828501611579565b91505092915050565b600080604083850312156116d2576116d1611cfa565b5b60006116e085828601611579565b92505060206116f185828601611564565b9150509250929050565b61170481611bb3565b82525050565b61171381611bc5565b82525050565b600061172482611a82565b61172e8185611a8d565b935061173e818560208601611c08565b61174781611cff565b840191505092915050565b600061175f602383611a8d565b915061176a82611d10565b604082019050919050565b6000611782602a83611a8d565b915061178d82611d5f565b604082019050919050565b60006117a5602683611a8d565b91506117b082611dae565b604082019050919050565b60006117c8602283611a8d565b91506117d382611dfd565b604082019050919050565b60006117eb601f83611a8d565b91506117f682611e4c565b602082019050919050565b600061180e602083611a8d565b915061181982611e75565b602082019050919050565b6000611831602983611a8d565b915061183c82611e9e565b604082019050919050565b6000611854602583611a8d565b915061185f82611eed565b604082019050919050565b6000611877602483611a8d565b915061188282611f3c565b604082019050919050565b61189681611bf1565b82525050565b6118a581611bfb565b82525050565b60006020820190506118c060008301846116fb565b92915050565b60006020820190506118db600083018461170a565b92915050565b600060208201905081810360008301526118fb8184611719565b905092915050565b6000602082019050818103600083015261191c81611752565b9050919050565b6000602082019050818103600083015261193c81611775565b9050919050565b6000602082019050818103600083015261195c81611798565b9050919050565b6000602082019050818103600083015261197c816117bb565b9050919050565b6000602082019050818103600083015261199c816117de565b9050919050565b600060208201905081810360008301526119bc81611801565b9050919050565b600060208201905081810360008301526119dc81611824565b9050919050565b600060208201905081810360008301526119fc81611847565b9050919050565b60006020820190508181036000830152611a1c8161186a565b9050919050565b6000602082019050611a38600083018461188d565b92915050565b6000604082019050611a53600083018561188d565b611a60602083018461188d565b9392505050565b6000602082019050611a7c600083018461189c565b92915050565b600081519050919050565b600082825260208201905092915050565b6000611aa982611bf1565b9150611ab483611bf1565b9250827fffffffffffffffffffffffffffffffffffffffffffffffffffffffffffffffff03821115611ae957611ae8611c6d565b5b828201905092915050565b6000611aff82611bf1565b9150611b0a83611bf1565b925082611b1a57611b19611c9c565b5b828204905092915050565b6000611b3082611bf1565b9150611b3b83611bf1565b9250817fffffffffffffffffffffffffffffffffffffffffffffffffffffffffffffffff0483118215151615611b7457611b73611c6d565b5b828202905092915050565b6000611b8a82611bf1565b9150611b9583611bf1565b925082821015611ba857611ba7611c6d565b5b828203905092915050565b6000611bbe82611bd1565b9050919050565b60008115159050919050565b600073ffffffffffffffffffffffffffffffffffffffff82169050919050565b6000819050919050565b600060ff82169050919050565b60005b83811015611c26578082015181840152602081019050611c0b565b83811115611c35576000848401525b50505050565b60006002820490506001821680611c5357607f821691505b60208210811415611c6757611c66611ccb565b5b50919050565b7f4e487b7100000000000000000000000000000000000000000000000000000000600052601160045260246000fd5b7f4e487b7100000000000000000000000000000000000000000000000000000000600052601260045260246000fd5b7f4e487b7100000000000000000000000000000000000000000000000000000000600052602260045260246000fd5b600080fd5b6000601f19601f8301169050919050565b7f45524332303a207472616e7366657220746f20746865207a65726f206164647260008201527f6573730000000000000000000000000000000000000000000000000000000000602082015250565b7f416d6f756e74206d757374206265206c657373207468616e20746f74616c207260008201527f65666c656374696f6e7300000000000000000000000000000000000000000000602082015250565b7f4f776e61626c653a206e6577206f776e657220697320746865207a65726f206160008201527f6464726573730000000000000000000000000000000000000000000000000000602082015250565b7f45524332303a20617070726f766520746f20746865207a65726f20616464726560008201527f7373000000000000000000000000000000000000000000000000000000000000602082015250565b7f416d6f756e74206d757374206265206c657373207468616e20737570706c7900600082015250565b7f4f776e61626c653a2063616c6c6572206973206e6f7420746865206f776e6572600082015250565b7f5472616e7366657220616d6f756e74206d75737420626520677265617465722060008201527f7468616e207a65726f0000000000000000000000000000000000000000000000602082015250565b7f45524332303a207472616e736665722066726f6d20746865207a65726f20616460008201527f6472657373000000000000000000000000000000000000000000000000000000602082015250565b7f45524332303a20617070726f76652066726f6d20746865207a65726f2061646460008201527f7265737300000000000000000000000000000000000000000000000000000000602082015250565b611f9481611bb3565b8114611f9f57600080fd5b50565b611fab81611bc5565b8114611fb657600080fd5b50565b611fc281611bf1565b8114611fcd57600080fd5b5056fe45524332303a207472616e7366657220616d6f756e74206578636565647320616c6c6f77616e636545524332303a2064656372656173656420616c6c6f77616e63652062656c6f77207a65726fa26469706673582212202d07ec4db2cc48af271d6f410f769a4ed7f18461baa4cf412638e7fccbb7e6e264736f6c63430008060033",
  "immutableReferences": {},
  "source": "pragma solidity ^0.8;\r\n\r\n\r\nimport \"@openzeppelin/contracts/token/ERC20/IERC20.sol\";\r\nimport \"@openzeppelin/contracts/utils/math/SafeMath.sol\";\r\nimport \"@openzeppelin/contracts/utils/Address.sol\";\r\nimport \"@openzeppelin/contracts/access/Ownable.sol\";\r\nimport \"@openzeppelin/contracts/utils/Context.sol\";\r\n\r\ncontract VariableRefToken is Context, IERC20, Ownable {\r\n    using SafeMath for uint256;\r\n    using Address for address;\r\n\r\n    mapping (address => uint256) private _rOwned;\r\n    mapping (address => uint256) private _tOwned;\r\n    mapping (address => mapping (address => uint256)) private _allowances;\r\n\r\n   \r\n    uint256 private constant MAX = ~uint256(0);\r\n    uint256 private constant _tTotal = 10 * 10**6 * 10**9;\r\n    uint256 private _rTotal = (MAX - (MAX % _tTotal));\r\n    uint256 private _tFeeTotal;\r\n    uint256 private _varFee;\r\n    uint256 private _yesterDay;\r\n\r\n    string private _name = 'VarRefToken';\r\n    string private _symbol = 'GUI';\r\n    uint8 private _decimals = 9;\r\n\r\n    constructor () public {\r\n        _rOwned[_msgSender()] = _rTotal;\r\n        _yesterDay = block.timestamp;\r\n        _varFee = 50;\r\n        emit Transfer(address(0), _msgSender(), _tTotal);\r\n    }\r\n    \r\n    function name() public view returns (string memory) {\r\n        return _name;\r\n    }\r\n\r\n    function dates() public view returns (uint256, uint256) {\r\n        return (_yesterDay, block.timestamp);\r\n    }\r\n\r\n    function rBalance(address cuenta) public view returns (uint256) {\r\n        return _rOwned[cuenta];\r\n    }\r\n\r\n    function currentRate1() public view returns (uint256) {\r\n        return _getRate();\r\n    }\r\n\r\n    function symbol() public view returns (string memory) {\r\n        return _symbol;\r\n    }\r\n\r\n    function decimals() public view returns (uint8) {\r\n        return _decimals;\r\n    }\r\n\r\n    function totalSupply() public view override returns (uint256) {\r\n        return _tTotal;\r\n    }\r\n\r\n    function balanceOf(address account) public view override returns (uint256) {\r\n        return tokenFromReflection(_rOwned[account]);\r\n    }\r\n\r\n    function transfer(address recipient, uint256 amount) public override returns (bool) {\r\n        _transfer(_msgSender(), recipient, amount);\r\n        return true;\r\n    }\r\n\r\n    function allowance(address owner, address spender) public view override returns (uint256) {\r\n        return _allowances[owner][spender];\r\n    }\r\n\r\n    function approve(address spender, uint256 amount) public override returns (bool) {\r\n        _approve(_msgSender(), spender, amount);\r\n        return true;\r\n    }\r\n\r\n    function transferFrom(address sender, address recipient, uint256 amount) public override returns (bool) {\r\n        _transfer(sender, recipient, amount);\r\n        _approve(sender, _msgSender(), _allowances[sender][_msgSender()].sub(amount, \"ERC20: transfer amount exceeds allowance\"));\r\n        return true;\r\n    }\r\n\r\n    function increaseAllowance(address spender, uint256 addedValue) public virtual returns (bool) {\r\n        _approve(_msgSender(), spender, _allowances[_msgSender()][spender].add(addedValue));\r\n        return true;\r\n    }\r\n\r\n    function decreaseAllowance(address spender, uint256 subtractedValue) public virtual returns (bool) {\r\n        _approve(_msgSender(), spender, _allowances[_msgSender()][spender].sub(subtractedValue, \"ERC20: decreased allowance below zero\"));\r\n        return true;\r\n    }\r\n\r\n\r\n    function totalFees() public view returns (uint256) {\r\n        return _tFeeTotal;\r\n    }\r\n    \r\n    function vFee() public view returns (uint256) {\r\n        return _varFee;\r\n    }\r\n\r\n    function reflect(uint256 tAmount) public {\r\n        address sender = _msgSender();\r\n        (uint256 rAmount,,,,) = _getValues(tAmount, _varFee);\r\n        _rOwned[sender] = _rOwned[sender].sub(rAmount);\r\n        _rTotal = _rTotal.sub(rAmount);\r\n        _tFeeTotal = _tFeeTotal.add(tAmount);\r\n    }\r\n\r\n    function reflectionFromToken(uint256 tAmount, bool deductTransferFee) public view returns(uint256) {\r\n        require(tAmount <= _tTotal, \"Amount must be less than supply\");\r\n            (,uint256 rTransferAmount,,,) = _getValues(tAmount, _varFee);\r\n            return rTransferAmount;\r\n    }\r\n\r\n    function tokenFromReflection(uint256 rAmount) public view returns(uint256) {\r\n        require(rAmount <= _rTotal, \"Amount must be less than total reflections\");\r\n        uint256 currentRate =  _getRate();\r\n        return rAmount.div(currentRate);\r\n    }\r\n\r\n\r\n    function _approve(address owner, address spender, uint256 amount) private {\r\n        require(owner != address(0), \"ERC20: approve from the zero address\");\r\n        require(spender != address(0), \"ERC20: approve to the zero address\");\r\n\r\n        _allowances[owner][spender] = amount;\r\n        emit Approval(owner, spender, amount);\r\n    }\r\n\r\n    function _transfer(address sender, address recipient, uint256 amount) private {\r\n        require(sender != address(0), \"ERC20: transfer from the zero address\");\r\n        require(recipient != address(0), \"ERC20: transfer to the zero address\");\r\n        require(amount > 0, \"Transfer amount must be greater than zero\");\r\n         _transferStandard(sender, recipient, amount);\r\n    }\r\n\r\n    function _transferStandard(address sender, address recipient, uint256 tAmount) private {\r\n        uint256 varFee = _assignFee();\r\n        (uint256 rAmount, uint256 rTransferAmount, uint256 rFee, uint256 tTransferAmount, uint256 tFee) = _getValues(tAmount, varFee);\r\n        _rOwned[sender] = _rOwned[sender].sub(rAmount);\r\n        _rOwned[recipient] = _rOwned[recipient].add(rTransferAmount);       \r\n        _reflectFee(rFee, tFee);\r\n        emit Transfer(sender, recipient, tTransferAmount);\r\n    }\r\n\r\n    function _assignFee() private returns(uint256) {\r\n        if(block.timestamp.sub(_yesterDay) >= 2629743) {\r\n            \r\n            _varFee = _varFee == 0 ? _varFee : _varFee.sub(5);\r\n        } \r\n        _yesterDay = block.timestamp;\r\n        return _varFee;\r\n    }\r\n\r\n    function _reflectFee(uint256 rFee, uint256 tFee) private {\r\n        _rTotal = _rTotal.sub(rFee);\r\n        _tFeeTotal = _tFeeTotal.add(tFee);\r\n    }\r\n\r\n    function _getValues(uint256 tAmount, uint256 vFee) private view returns (uint256, uint256, uint256, uint256, uint256) {\r\n        (uint256 tTransferAmount, uint256 tFee) = _getTValues(tAmount, vFee);\r\n        uint256 currentRate =  _getRate();\r\n        (uint256 rAmount, uint256 rTransferAmount, uint256 rFee) = _getRValues(tAmount, tFee, currentRate);\r\n        return (rAmount, rTransferAmount, rFee, tTransferAmount, tFee);\r\n    }\r\n\r\n    function _getTValues(uint256 tAmount, uint256 vFee) private pure returns (uint256, uint256) {\r\n        uint256 tFee = tAmount.mul(vFee).div(100);\r\n        uint256 tTransferAmount = tAmount.sub(tFee);\r\n        return (tTransferAmount, tFee);\r\n    }\r\n\r\n    function _getRValues(uint256 tAmount, uint256 tFee, uint256 currentRate) private pure returns (uint256, uint256, uint256) {\r\n        uint256 rAmount = tAmount.mul(currentRate);\r\n        uint256 rFee = tFee.mul(currentRate);\r\n        uint256 rTransferAmount = rAmount.sub(rFee);\r\n        return (rAmount, rTransferAmount, rFee);\r\n    }\r\n\r\n    function _getRate() private view returns(uint256) {\r\n        (uint256 rSupply, uint256 tSupply) = _getCurrentSupply();\r\n        return rSupply.div(tSupply);\r\n    }\r\n\r\n    function _getCurrentSupply() private view returns(uint256, uint256) {\r\n        uint256 rSupply = _rTotal;\r\n        uint256 tSupply = _tTotal;\r\n        return (rSupply, tSupply);\r\n    }\r\n}",
  "sourcePath": "C:/Users/guill/swoop/contracts/VarRefToken.sol",
  "compiler": {
    "name": "solc",
    "version": "0.8.6+commit.11564f7e.Emscripten.clang"
  },
  "schemaVersion": "3.4.1",
  "updatedAt": "2021-08-07T13:25:11.875Z",
  "devdoc": {
    "kind": "dev",
    "methods": {
      "allowance(address,address)": {
        "details": "Returns the remaining number of tokens that `spender` will be allowed to spend on behalf of `owner` through {transferFrom}. This is zero by default. This value changes when {approve} or {transferFrom} are called."
      },
      "approve(address,uint256)": {
        "details": "Sets `amount` as the allowance of `spender` over the caller's tokens. Returns a boolean value indicating whether the operation succeeded. IMPORTANT: Beware that changing an allowance with this method brings the risk that someone may use both the old and the new allowance by unfortunate transaction ordering. One possible solution to mitigate this race condition is to first reduce the spender's allowance to 0 and set the desired value afterwards: https://github.com/ethereum/EIPs/issues/20#issuecomment-263524729 Emits an {Approval} event."
      },
      "balanceOf(address)": {
        "details": "Returns the amount of tokens owned by `account`."
      },
      "owner()": {
        "details": "Returns the address of the current owner."
      },
      "renounceOwnership()": {
        "details": "Leaves the contract without owner. It will not be possible to call `onlyOwner` functions anymore. Can only be called by the current owner. NOTE: Renouncing ownership will leave the contract without an owner, thereby removing any functionality that is only available to the owner."
      },
      "totalSupply()": {
        "details": "Returns the amount of tokens in existence."
      },
      "transfer(address,uint256)": {
        "details": "Moves `amount` tokens from the caller's account to `recipient`. Returns a boolean value indicating whether the operation succeeded. Emits a {Transfer} event."
      },
      "transferFrom(address,address,uint256)": {
        "details": "Moves `amount` tokens from `sender` to `recipient` using the allowance mechanism. `amount` is then deducted from the caller's allowance. Returns a boolean value indicating whether the operation succeeded. Emits a {Transfer} event."
      },
      "transferOwnership(address)": {
        "details": "Transfers ownership of the contract to a new account (`newOwner`). Can only be called by the current owner."
      }
    },
    "version": 1
  },
  "userdoc": {
    "kind": "user",
    "methods": {},
    "version": 1
  }
}